:020000040800F2
:1064000000500020B1700008FD700008FD70000809
:10641000FD700008FD700008FD700008000000001D
:10642000000000000000000000000000FD700008F7
:10643000FD70000800000000FD700008FD700008FD
:10644000FD700008FD700008FD700008FD70000878
:10645000FD700008FD700008FD700008FD70000868
:10646000FD700008FD700008FD700008398F0008FD
:10647000FD700008FD7000087D8D0008AD8D0008DE
:10648000FD700008FD700008FD7000089590000880
:10649000AB900008FD700008FD7000081590000822
:1064A000FD700008FD700008FD700008FD70000818
:1064B000D58D00086D8E0008158F0008FD7000084E
:1064C000FD700008FD700008FD700008FD700008F8
:1064D000FD700008FD700008FD700008C190000804
:1064E000FD700008FD700008FD700008000000004D
:1064F000000000000000000000000000000000009C
:0C65000000000000000000005FF808F13F
:10650C00844641EA000313F0030349D1403A23D3F4
:10651C000B6803604B6843608B688360CB68C36017
:10652C000B6903614B6943618B698361CB69C361FF
:10653C000B6A03624B6A43628B6A8362CB6AC362E7
:10654C000B6B03634B6B43638B6B8363CB6BC363CF
:10655C0040304031403ADBD230320BD30B68036011
:10656C004B6843608B688360CB68C360103010311C
:10657C00103AF3D20C3205D351F8043B40F8043BEB
:10658C00043AF9D2043208D0D2071CBF11F8013BEF
:10659C0000F8013B01D30B8803806046704700BFB5
:1065AC00082A13D38B07B1D010F00303AED0C3F17C
:1065BC000403D21ADB071CBF11F8013B00F8013BA6
:1065CC00A4D331F8023B20F8023B9FE7043AD9D31D
:1065DC00013A11F8013B00F8013BF9D20B7803703A
:1065EC004B7843708B788370604670470B4611462E
:1065FC0010B1012809D07047A3F15F02032A184695
:10660C0001D800F0E7B800F001B9184600F00EB957
:10661C007047704700F020B97047704737B500F0ED
:10662C007DFA3F2400F046FA002210460094202305
:10663C000B2100F0D5FE00221046009420230C21E3
:10664C0000F0CEFE00221046009420230D2100F015
:10665C00C7FE00221046009420230E2100F0C0FE3D
:10666C000022104600942023182100F0B9FE0022CD
:10667C00104600942023222100F0B2FE0022104686
:10668C0000942023292100F0ABFE00221046009438
:10669C0020232A2100F0A4FE00221046009420237F
:1066AC002B2100F09DFE00221046009420232C216B
:1066BC0000F096FE0022104600942023332100F0B7
:1066CC008FFE00221046009420233D2100F088FE0E
:1066DC000022104600942023472100F081FE002266
:1066EC00104600942023512100F07AFE002210461F
:1066FC0000942023522100F073FE002210460094D7
:10670C002023532100F06CFE00220025104600943B
:10671C002023542100F064FE2346284600952022B5
:10672C000F2100F05DFE2346284600952022122101
:10673C0000F056FE2346284600952022192100F031
:10674C004FFE23462846009520221B2100F048FED0
:10675C002346284600952022232100F041FE2346A3
:10676C00284600952022242100F03AFE2346284694
:10677C00009520222D2100F033FE2346284600955B
:10678C002022372100F02CFE23462846009520229B
:10679C00382100F025FE2346284600952022412171
:1067AC0000F01EFE2346284600952022432100F0CF
:1067BC0017FE23462846009520224B2100F010FEA0
:1067CC000095234620224E21284600F009FE03B0F6
:1067DC0030BD000038B50C4C05462378022B03D194
:1067EC00602803D000F06EF8602D09D12378022BBD
:1067FC0008D0054B02221A70BDE8384000F036B8BC
:10680C000023237038BD00BF15080020054B1B78F2
:10681C00022B06D1044B1B680BB100F039B900F008
:10682C006FB870471508002024010020084B10B5E4
:10683C001B78022B0BD151B1064C23681BB900F00D
:10684C0043F8012302E000F053F80023236010BD4D
:10685C001508002024010020034B1B78022B01D1CA
:10686C0000F020B9704700BF1508002008B500F0F3
:10687C0033FA124A60205178137843EA0123917855
:10688C0043EA014100F043FA0D4A04205178137891
:10689C0043EA0123917843EA014100F038FA00F011
:1068AC005DFA00F073FA00F0B3FA00F09BFA00F016
:1068BC0013FBBDE8084000F0CFBA00BF1600002063
:1068CC000A00002000F0F8B908B500F005FA074AF4
:1068DC005078137843EA0023907843EA004000F0A4
:1068EC002FFABDE8084000F02FBB00BF0D000020C0
:1068FC0008B500F01AFABDE80840FFF7B7BF000072
:10690C002DE9F0435B28B3B005460C461ED05C283D
:10691C002FD0042838D1002900F0AB80564B1A68D0
:10692C0032B100221A6033B0BDE8F04300F0E4B994
:10693C00524C012119606178237843EA0123A17834
:10694C0043EA014302F07F41194333E0002900F090
:10695C0090804B4B5A78092A04D801325A701A7815
:10696C000C321A7000F03EFA33B0BDE8F04300F080
:10697C00B3BA00297DD0424B5A78002AF2D0013AA2
:10698C005A701A780C3AECE7A0F10B034D2B70D827
:10699C00394BD3F80080B8F1000F16D079B100F064
:1069AC00FDFA2846374A5178137843EA0123917847
:1069BC0043EA014133B0BDE8F04300F0A8B900F060
:1069CC0000FB284600F098F94EE02F4B64221F780C
:1069DC00DFF8B89057430DEB020609EB0701304680
:1069EC00FFF78EFD59F807705C2219971BA96846B2
:1069FC000CB3FFF785FD96E80C002146284600F005
:106A0C0006FB284600F0D8F9454681461D4E25ACBC
:106A1C00BD422EDA54F8040F01354844C0B200F0E0
:106A2C00D9F97178337843EA0123B17843EA01410B
:106A3C0000F06DF9ECE7FFF763FD96E80C002846D3
:106A4C00214600F009FB284600F0B6F9064625ADB4
:106A5C00BC4209DA55F8040F01343044C0B200F0DE
:106A6C00B9F900F049F9F3E733B0BDE8F04300F0B1
:106A7C00F3B933B0BDE8F083000000200A00002019
:106A8C001900002013000020280100201808002005
:106A9C00502805D0A0F10B034D2B01D800F068BA9B
:106AAC0070470000024B1B680BB100F09DBA704799
:106ABC00000000202DE9F0416425B2B0164F2A46A3
:106ACC000021684603F044FF0124042303264FF001
:106ADC0007082A46694638460E9300960194059499
:106AEC000894CDF83C80FFF70BFD2A4600210DEBF6
:106AFC00050003F02DFF2A460DEB050178191996B8
:106B0C001A941D9421942796CDF8A080FFF7F8FCD9
:106B1C0032B0BDE8F08100BF180800202DE9F04F1D
:106B2C006424ADF5197D2246002102A803F010FF64
:106B3C000825042301264FF002094FF0050807270A
:106B4C004FF00B0B11930193224609230DEB05011A
:106B5C0058481493029503960596079608960A963C
:106B6C000C960E96CDF84090CDF848801397CDF842
:106B7C0054B0FFF7C5FC224600211BA803F0E8FE29
:106B8C000A232E934B4B4FF0030A181922461BA9CC
:106B9C001B951C961E961F96219623962496269638
:106BAC00CDF8A490CDF8A8A0CDF8AC802C972D955D
:106BBC00FFF7A6FC2246002134A803F0C9FE3D4B8A
:106BCC00224634A903F1C800349535963796389689
:106BDC003A963C963D964096CDF80891CDF80CA18E
:106BEC00CDF8108145974695CDF81CB1FFF788FC80
:106BFC00224600214DA803F0ABFE09235F932D4BD9
:106C0C0022464DA903F596704D954E965096519689
:106C1C005396559657965996CDF86C91CDF870A120
:106C2C00CDF874815E97CDF880B1FFF769FC2246F0
:106C3C00002166A803F08CFE019B22467593092364
:106C4C0078931C4B66A903F5C87066956796699690
:106C5C006B966C966E9670967296CDF8D091CDF828
:106C6C00D8817797CDF8E4B1FFF74AFC2246002192
:106C7C007FA803F06DFE092391930A2392930D4B89
:106C8C0022467FA903F5FA707F95809682968396AB
:106C9C008596879689968A96CDF83492CDF838A247
:106CAC00CDF83C829097FFF72BFC0DF5197DBDE8D4
:106CBC00F08F00BFE008002037B501240025002329
:106CCC002146013400951A461846E4B200F088FBC0
:106CDC00632CF4D103B030BD37B50B240025002351
:106CEC002146013400951A461846E4B200F078FBB0
:106CFC00592CF4D103B030BD07B5002301460093E5
:106D0C001A46184600F06CFB03B05DF804FB1FB587
:106D1C00C1F307430093CAB2C1F307230146002015
:106D2C0000F05EFB05B05DF804FB07B50023009393
:106D3C001A465A21012000F053FB03B05DF804FB06
:106D4C001FB5C0F307430093C2B2C0F307235A2107
:106D5C00012000F045FB05B05DF804FB30B50A4C92
:106D6C0000200B2300229918C9B244F831200132BB
:106D7C0004EBC105082A6860F5D10A33DBB25B2B42
:106D8C0000F10100EED130BDB80B002030B5094D3B
:106D9C0000220B230021C8B284180131E4B218443C
:106DAC0008292855F7D10A33DBB208325B2BD2B253
:106DBC00F0D130BDC80E0020054A0023995C8142F9
:106DCC0001D1D8B270470133402BF7D1FF20704767
:106DDC00C80E00203F289ABF014B185CFF2070475B
:106DEC00C80E002070B5084B084C18780023002200
:106DFC00C11815198E180132082AEE54F9D108332E
:106E0C00402BF4D170BD00BF19000020380B0020BE
:106E1C000022134610B5074800210C18A354013367
:106E2C00DBB2062B05D001310829F6D10832402AF5
:106E3C00F2D110BD780B0020054A02EBC003596853
:106E4C00044B52F8302003EBC103985C704700BF31
:106E5C00B80B0020380B00202DE9F0411A4B9AB0EA
:106E6C0019781A4B642202FB013101A8FFF748FB89
:106E7C00174FDFF8608000240B26002524B1B8F8EA
:106E8C00002098F8023001E03A88BB788DF8023087
:106E9C001AAB03EB840353F8603CADF8002023B12C
:106EAC00A8190099C0B2FFF732FF01340C2C05F180
:106EBC00010508BF0024082DE0D10A365B2EDCD179
:106ECC001AB0BDE8F08100BF29010020E0080020C5
:106EDC00070000200400002010B5184B184C5B78FC
:106EEC00032B09D9174A5B205178137843EA012305
:106EFC00917843EA014112E0617823784FF05B000E
:106F0C0043EA0123A17843EA014108D0FFF7FFFED1
:106F1C000C4A5178137843EA0123917806E0FFF785
:106F2C00F6FE6178237843EA0123A17843EA014114
:106F3C005C20BDE81040FFF7EABE00BF190000203E
:106F4C00100000201300002038B5084D0B24697880
:106F5C002B78204643EA0123A978013443EA014106
:106F6C00E4B2FFF7D4FE112CF1D138BD070000209C
:106F7C00074A02EBC0035968064B52F8302003EB6A
:106F8C00C1039B5C062B9CBF034A1370704700BF68
:106F9C00B80B0020780B00202901002070B50D469D
:106FAC00FFF74AFF04462B4602469021012000F0D1
:106FBC0049F92B462246BDE870409021022000F092
:106FCC0041B970B50D46FFF737FF04462B46024614
:106FDC008021012000F036F92B462246BDE8704096
:106FEC008021022000F02EB970B50D46FFF724FF6A
:106FFC0004462B460246A021012000F023F92B4623
:10700C002246BDE87040A021022000F01BB982B0DE
:10701C002DE9F0410F4606A981E80C00FFF70CFFA3
:10702C00804612AE0025069B9D4211DA56F8044F9D
:10703C003B464444E4B222469021012000F002F980
:10704C003B4622469021022000F0FCF80135EAE78D
:10705C00BDE8F04102B0704782B02DE9F0410F4617
:10706C0006A981E80C00FFF7E7FE804612AE00256A
:10707C00069B9D4211DA56F8044F3B464444E4B259
:10708C0022468021012000F0DDF83B46224680217B
:10709C00022000F0D7F80135EAE7BDE8F04102B074
:1070AC0070470000002100F004B80C4B5B584350B3
:1070BC0004310B480B4B42189A42FFF4F6AF0A4AC4
:1070CC0000F003B8002342F8043B084B9A42FFF44B
:1070DC00F9AF02F00FF901F0DFF9704784BE000838
:1070EC000000002024010020240100201421002095
:1070FC00FFF7FEBFFFF78CBAFFF78BBA30B5144B16
:10710C00144901241448002503F140025962D96343
:10711C00C3F8DC1202219C719C731A6183F8304015
:10712C004FF4A07203F5C07483F8D0121D7603F5EA
:10713C00387183F8C6521862DA8298639C62DA85D9
:10714C00C3F8D802C3F8C812A3F8CE2230BD00BFD2
:10715C002C010020057100080171000808B51348C6
:10716C00134901F0ABF8012000F0D9FBB0F5005F3A
:10717C0014D10E4800F02AFF80B90E4801F018F91E
:10718C0060B90D4801F014F940B9012000F0C7FBBB
:10719C00B0F5005F02D1012000F0CAFBBDE8084049
:1071AC0006480749022201F078B800BF241C0020D1
:1071BC003C01002014140020080F002010130020A4
:1071CC00F403002008B5094801F0F2F868B108484A
:1071DC00802100F0C1FE40B1044801F0FBF8BDE88D
:1071EC0008400146024800F0AFBE08BD080F002061
:1071FC000048004037B50C46074905460968052983
:10720C0007D18DE80C00054805492A46234600F0B5
:10721C0022FF03B030BD00BF100800201414002062
:10722C002C01002007B503468DE8060003480449ED
:10723C00022200F010FF03B05DF804FB080F0020E1
:10724C00EC0300200128F0B502D9022804D0F0BDCF
:10725C00BDE8F040FFF7CEBF0846BDE8F040114650
:10726C001A46FFF7DFBF00000346094810B5006857
:10727C0005280CD1074C08482160A28021461A46EB
:10728C0000F02DFFB4F904300BB10023A38010BD26
:10729C00100800202C0100201414002000200249AA
:1072AC000622FFF7E1BF00BFF8A900082DE9F7435C
:1072BC0000232E4E8DF807309DF807202C4B96F8A6
:1072CC0020744FF4816404FB023467B1204601F052
:1072DC006FF818B1204601F07DF8F7E79DF80730FC
:1072EC0006EBC3039880204601F062F8002836D0E4
:1072FC009DF807000130C0B200F008FB30282ED0FA
:10730C009DF807301B4A0025134493F806901FFA8A
:10731C0085F8C84517D39DF8070017497F384246B2
:10732C00C0B200F0DDFB9DF807000130C0B200F0E8
:10733C00EDFA102813D09DF8070030210130C0B2AF
:10734C0000F0B2FA0BE0204601F032F80028E2D04F
:10735C00204601F03FF8084B58550135D7E717B1D7
:10736C00002386F8203403B0BDE8F0832C01002004
:10737C0014140020F8A900084D050020034B1B68CD
:10738C00052B01D1FFF792BF704700BF10080020FA
:10739C00FFF744B900290CBF7F210021FFF73CB94E
:1073AC00642803460A460BD8064912B10120C8547A
:1073BC0002E0085C20B1CA5400201946FFF716B948
:1073CC00704700BF900500200B06084602D41146FA
:1073DC00FFF720B97047024600210120FFF706B9DC
:1073EC0010B5012814461A469DF8083003D06329BD
:1073FC0008BF642100E0632108462146BDE8104027
:10740C0000F07CB9FFF709B970B5484B4FF48052C6
:10741C001A614FF480725A61454DA3F553438CB0F9
:10742C00F43B01932B4613F8011B0A2202FB013398
:10743C0002938023002406933E484FF4005301A985
:10744C000A930394049205940794089409940B945A
:10745C0000F0E4FB2B780133DBB2032B2B702B46B3
:10746C000AD92C7095F829200132D2B2052A85F858
:10747C00292088BF85F829402F4A4FF4E05111612B
:10748C000421C2F8101493F829102C4A2C4C32F811
:10749C0031101A782B4BD2B2187800F0FF03002869
:1074AC003DD0012303FA01F15020A4F5A07300FB99
:1074BC000232C9B20020137855780B420CBF00235E
:1074CC0001230D4295781CBF43F00203DBB20D4241
:1074DC00D57818BF43F004030D42157918BF43F05B
:1074EC0008030D42557918BF43F010030D429579EE
:1074FC0018BF43F020030D4202F10805D27918BFE2
:10750C0043F040030A4218BF43F080032618DB43C4
:10751C000130DBB20A28337006D02A46CBE7FF22B3
:10752C00E25401330A2BFAD10CB070BD000C0140AF
:10753C00F4050020440002400010014000AA00089D
:10754C005E0700201B00002008B505480A2100F04A
:10755C0096FBBDE8084003480A2100F090BB00BF31
:10756C00440002405800024008B50548012100F0D3
:10757C0073FBBDE808400348012100F06DBB00BF60
:10758C00580002404400024030B52C4B4FF480525E
:10759C002B4C5A6185B04FF480721A6104AD04F122
:1075AC0030030FCB05E90F00264B1A78197805EB41
:1075BC00820204EB410152F8102CB1F840105161D9
:1075CC0093F82920D20737D51A781846224492F816
:1075DC00485010F8012B144494F84C1003F5BA726F
:1075EC00084419444C782A44E4091D4485F8744134
:1075FC004C78C4F3801454704C78C4F340149470D9
:10760C004C781B78C4F30014D4700BB1131D04E038
:10761C004978531DC1F3C00111714278D2091A7017
:10762C004278C2F380125A704278C2F340129A70B8
:10763C004278C2F30012DA7005B030BD000C014084
:10764C0000AA0008F4050020024B184490F85000E2
:10765C00FFF7A6BE00AA0008034B0A46034493F8A2
:10766C0050100220FFF7B0BE00AA00080A4B1A788F
:10767C0022B920280ED101221A7008E01F2806D842
:10768C00064B7F21184490F89000FFF789BE7F20AD
:10769C00FFF7A1BE704700BF1B00002000AA000826
:1076AC00074B1B785BB11F2806D8064B00211844EA
:1076BC0090F89000FFF774BE0020FFF78CBE704767
:1076CC001B00002000AA000808B50A4B00224FF44A
:1076DC00005083F8952183F896211A7083F829209D
:1076EC0000F0D0FA4FF4003000F0CCFA024B01223B
:1076FC005A7008BDF40500201B000020632870B5EB
:10770C0012D80A4C0A4E34F810500A4C36F8106055
:10771C0034F810400848064486F82A1041192044D1
:10772C0081F82A2080F82A3070BD00BF2CAB0008ED
:10773C00F4AB0008BCAC0008F405002010B5002424
:10774C000C4BE018233BE35C3BB100F0F9FD60B15E
:10775C00094B185DFFF78AFF07E0282100F008FEAF
:10776C0018B1054B185DFFF79BFF0134212CE7D1B5
:10777C0010BD00BF8B070020B1AA0008084A0023E7
:10778C000849585C0849013331F8101032F8020FDF
:10779C0002318908884238BF1180402BF0D17047E4
:1077AC00EE1F0020D8B30008281E002008B5FFF7F4
:1077BC00C5FF074B93F8B8214AB1002283F8B821D2
:1077CC00044B1B781BB1BDE80840FFF7D7BF08BDC1
:1077DC00F40500201B000020024B1B780BB101F0BC
:1077EC0009BE70471B00002038B54FF400711848D3
:1077FC0000F0A0FA174C184BA17893F8B92183F834
:10780C00B90101EA0205284241EA020118BF01252B
:10781C0040EA010118BF83F8BA51A27011F0FF01C0
:10782C000E4A08BF83F8BA1193F8BA31117899420D
:10783C000CD013700BB9012202E0012B02D10222F1
:10784C00074B1A70BDE83840FFF73EBF38BD00BF8C
:10785C00000C01401B000020F4050020F80700205C
:10786C0035000020014B1860704700BF405C0040A1
:10787C00014B186880B27047405C00404FF6F873BB
:10788C00014A034013607047505C0040800000F1D7
:10789C00804000F5B840036823F4EC4323F07003F8
:1078AC0019438BB203607047800000F1804000F5F3
:1078BC00B8400368CA0623F4E04323F040039BB2AC
:1078CC0048BF83F010038A0648BF83F0200343F4BB
:1078DC00004343F0800303607047800000F1804058
:1078EC0000F5B8400368CA0423F4804323F0700306
:1078FC009BB248BF83F480538A0448BF83F400537F
:10790C0043F4004343F0800303607047800000F1B0
:10791C00804000F5B840006800F0300070478000EF
:10792C0000F1804000F5B840006800F4405070470A
:10793C00800000F1804000F5B840036823F48043D8
:10794C0023F070039BB283F4405343F4004343F0A1
:10795C00800303607047800000F1804000F5B84060
:10796C00036823F4F8731B051B0D43F4004343F029
:10797C00800303607047800000F1804000F5B84040
:10798C0003685B0408D5026840F60F73134043F498
:10799C00404343F0800303607047800000F1804057
:1079AC0000F5B84003685B0608D5026840F60F7313
:1079BC00134043F4004343F0C003036070470000DE
:1079CC00064B49081B6849009BB203EBC00000F151
:1079DC00005000F54050400001607047505C004082
:1079EC00054B49081B6849009BB203EBC000034BD5
:1079FC0003445B0019607047505C00400430002069
:107A0C00054B1B689BB203EBC00000F1005000F566
:107A1C004050400000887047505C0040044B1B688D
:107A2C009BB203EBC000034B03445B001888704708
:107A3C00505C004004300020044B1B689BB203EBED
:107A4C00C000034B03445B0019607047505C00405E
:107A5C00023000200D4B3E291B689BB203EBC0008B
:107A6C000B4B03444FEA430209D94B09C80604BF28
:107A7C0003F1FF339BB29B0243F4004304E04B0839
:107A8C00C90748BF01339B0213607047505C00402C
:107A9C0006300020054B1B689BB203EBC000044B67
:107AAC0003445B001868C0F309007047505C004049
:107ABC0006300020C3B2000A40EA032070470000E1
:107ACC00044B0020044A18604FF47D431380034A92
:107ADC0013607047445C0040CC200020405C0040A8
:107AEC0070B500F07F0528460E461446FFF788FF58
:107AFC00A4B201462246304602F08EFC28462146AE
:107B0C00FFF79AFF002070BD70B500F07F05284686
:107B1C000E46FFF7BFFF04462846FFF77FFF2246BD
:107B2C000146304602F090FC204670BD02684FF6CC
:107B3C00FE73134003600023036043608360C360E3
:107B4C002A4B984222D02A4B984229D0294B984252
:107B5C0030D0294B984237D0284B98423ED0284BF6
:107B6C00984206D153F8682C42F4700243F8682C02
:107B7C007047244B984206D153F87C2C42F070622B
:107B8C0043F87C2C7047204B984206D153F8042CB8
:107B9C0042F00F0243F8042C70471C4B984206D15C
:107BAC0053F8182C42F0F00243F8182C7047184B7D
:107BBC00984206D153F82C2C42F4706243F82C2CCA
:107BCC007047144B984206D153F8402C42F4704243
:107BDC0043F8402C7047104B984205D153F8542C65
:107BEC0042F4702243F8542C704700BF0800024046
:107BFC001C00024030000240440002405800024089
:107C0C006C00024080000240080402401C04024048
:107C1C003004024044040240580402408A6810B503
:107C2C000C6A036814430A6923F4FF4314434A693A
:107C3C0023F0700314438A691443CA6914434A6AD3
:107C4C0014438A6A224313430360CB6843600B6876
:107C5C0083604B68C36010BD19B1036843F0010326
:107C6C0003E002684FF6FE7313400360704703682D
:107C7C000AB1194301E023EA010101607047416038
:107C8C0070470000C3004CBF014B024B586070475B
:107C9C000004024000000240CB78F0B5DA0648BF81
:107CAC008A78098803F00F0548BF154311F0FF0FC0
:107CBC001DD0046800220127974007EA0106BE4246
:107CCC0011D197004FF00F0C0CFA07FC05FA07F7CF
:107CDC0024EA0C04282B44EA070401D1466102E093
:107CEC00482B08BF06610132082AE4D10460FF2941
:107CFC001FD94468002202F108060127B74007EAA1
:107D0C000106BE4211D197004FF00F0C0CFA07FC84
:107D1C0005FA07F724EA0C04282B44EA070401D1DE
:107D2C00466102E0482B08BF06610132082AE2D105
:107D3C004460F0BD836819420CBF002001207047DD
:107D4C00016170474161704701F003039B000F22F2
:107D5C009A40984001F0FC0101F1804101F580311D
:107D6C0010B58C6824EA02028A608A6802438A6031
:107D7C0010BD0000014B1860704700BFD800424294
:107D8C001D4B10B55A6802F00C02042A03D0082AC5
:107D9C0003D01A4A11E01A4A0FE05A685968C2F324
:107DAC008342CC0302F1020201D4164904E0596863
:107DBC0089034CBF144912494A4302605968134A5B
:107DCC00C1F30311545C0168E14041605C68C4F389
:107DDC000224145D21FA04F484605C68C4F3C224A8
:107DEC00145DE140C1605B68C3F381331A44137CBA
:107DFC00B1FBF3F1016110BD0010024000127A00DA
:107E0C00808D5B0000093D00C0C62D0021000020C4
:107E1C00044B5A6909B1104301E022EA0000586191
:107E2C00704700BF00100240044B9A6909B110431F
:107E3C0001E022EA00009861704700BF0010024088
:107E4C00044BDA6909B1104301E022EA0000D86161
:107E5C00704700BF00100240038ACA889BB223F40B
:107E6C004053134330B503820D4682890989AB8890
:107E7C0092B20B43698922F4B0520B4322F00C02EC
:107E8C0013439BB28381838AAA899BB223F44073E8
:107E9C0087B013430446838201A8FFF771FF17498B
:107EAC00049A039B8C4208BF1346A289192112B273
:107EBC005943002A2A684FF06403B4BF5200920061
:107ECC00B1FBF2F1B1FBF3F21201100903FB10113B
:107EDC00A08900B2002806DAC9003231B1FBF3F3F5
:107EEC0003F0070305E009013231B1FBF3F303F0B2
:107EFC000F031A4392B2228107B030BD0038014003
:107F0C00838919B19BB243F4005303E023F400536B
:107F1C001B041B0C83817047C1F3421310B5012461
:107F2C0001F01F01A34204FA01F101D10C3003E06E
:107F3C00022B0CBF1030143003680AB1194301E056
:107F4C0023EA0101016010BDC1F308018180704773
:107F5C008088C0F308007047038819420CBF0020CA
:107F6C000120704710B5C1F3421401F01F03012228
:107F7C00012C02FA03F201D1838903E0022C0CBF1D
:107F8C00038A838A9BB21340028892B243B10123C5
:107F9C00090A03FA01F111420CBF0020012010BDA7
:107FAC00184610BD0023034A002199520233802B3E
:107FBC00F9D17047281E002090F8012190F800316B
:107FCC0082EA0300803818BF0120704790F8002126
:107FDC0090F80101101A18BF0120704790F8013178
:107FEC005A1C80F80121C154704790F800315A1C7A
:107FFC0080F80021C05C704710B590F80041045D1A
:10800C000C7090F8001101444978117090F800211F
:10801C00024492781A7090F800310344DA78029B8B
:10802C001A7090F80031043380F8003110BD00F163
:10803C004003DBB21F2B0AD9F2280AD0EF2808D94B
:10804C0000F0FD00B0F1F103584258417047012097
:10805C007047022070472DE9F0411D46B1F90430FC
:10806C000446002B17469DF818809DF81C6001DD16
:10807C00F72D32D98B797BB1204600F08FF960B3A4
:10808C003F0147EA1511069620462A464346C9B2D7
:10809C00BDE8F04100F0A8B92846FFF7C8FF074635
:1080AC00204600F07BF918B12046294600F089F9EA
:1080BC00204600F073F920B11FB12046414600F074
:1080CC0080F9204600F06AF938B1012F05D9204615
:1080DC003146BDE8F04100F074B9BDE8F0812DE9FE
:1080EC00F3478B7905460C46002B57D01201D2B2C0
:1080FC0042F0040642F0070742F0060842F0050978
:10810C00B4F90430002B4DD0284600F047F9002874
:10811C0048D02068431C2360034613F8022BC11C73
:10812C0023604378216090F802C0A088033880B2A5
:10813C0001B20029A08004DDCDF800C028463146EC
:10814C0004E030B9CDF800C02846394600F04CF9AF
:10815C00D6E7481C06D14FF0000ACDF800A02846FF
:10816C00414608E00231CBD14FF0000ACDF800A017
:10817C0028464946534600F037F9A4F804A0BFE757
:10818C00284600F00BF968B1A3882846013BA38070
:10819C0023685A1C2260197800F013F9B4F90430E2
:1081AC00002BEDD102B0BDE8F08703062DE9F041BC
:1081BC0005460C46904640D5F72807D910460022B4
:1081CC000C6913462946A047BDE8F0814B7B802BF8
:1081DC000BD0F02D1ED123681D700123A3808023AA
:1081EC00637300236372BDE8F0818B88CA889A425E
:1081FC0009D90A68591CA180F721D15463694046FA
:10820C002168A28898470023F72DA3806373E0D1DF
:10821C00BDE8F0812846FFF70AFF064628B9276912
:10822C004046294632463346B847637A0F33DBB2B1
:10823C00062B2BD9657226732BE04B7B802B09D137
:10824C008B88CA889A4226D90A68591CA180D054B6
:10825C00BDE8F0814A7AF2B15A1CD2B20B444A738F
:10826C0058720B7B9A4216D90D69497A23B1022BAD
:10827C00A27A03D1E37A02E01A4600E000234046DA
:10828C00A847637A0F33DBB2062B02D80023637244
:10829C0000E001236373BDE8F08170B504460D4620
:1082AC0016462046FFF792FE38B12046FFF79DFE9A
:1082BC0029463246FFF779FFF3E770BDF0B5054666
:1082CC0085B00C462846FFF781FE002834D00DF10E
:1082DC000E03009328460DF10D030DF10B0103AABB
:1082EC00FFF78AFE9DF80B30267A06EB131603F087
:1082FC000F038DF80B30F6B2002310499DF80B20BC
:10830C005F1C0A445179DBB2994209D904AA13447F
:10831C0013F8040C21463246FFF747FF3B46ECE7C7
:10832C00537D002BCED0637B802BCBD1F720214605
:10833C003246FFF73AFFC5E705B0F0BD84AD000843
:10834C000346007810B902221A707047020609D44D
:10835C00013810F0FF0001D0187007E080221A706D
:10836C000120704780281CBF80221A7000207047A3
:10837C0003783BB11A0601D4002309E0802B03D10A
:10838C008039017000207047013BDBB2802B01D09B
:10839C000370F7E7002303700120704743680068FF
:1083AC005840C0F30900B0F5007018BF01207047A9
:1083BC00436800685840C0F30900003018BF012022
:1083CC0070470368C3F3090303441972036801334C
:1083DC000360704742680346C2F309020244107AF4
:1083EC005A6801325A60704710B50468C4F3090426
:1083FC000444217201680131C1F3090101440A727C
:10840C0002680232C2F309020244137203689DF837
:10841C0008200333C3F3090303441A7203680433BB
:10842C00036010BD024B01221A705A70704700BFD6
:10843C00B0070020024B01221A7000225A707047BC
:10844C00B0070020054A402393700A239380012330
:10845C009371034A1370034A13707047B0070020DE
:10846C004C0500201B000020074A002391799370D3
:10847C009380064A29B10649097811B10549097852
:10848C0001B9012313707047B00700201B000020B6
:10849C00F9070020FA07002038B54FF000604FF4C0
:1084AC00C84102F029FA62B64FF4407002F0E6F9C6
:1084BC0000F0C0F84FF0C0500121FFF7C1FC00F0F4
:1084CC0097F800F0CFFB00F07FF900F025FA00F0F0
:1084DC00F5FA00F0BDFAFEF711FE00F005FF00F012
:1084EC0023FCFFF75FFD4FF4807040F2FF314FF437
:1084FC00007240F2013301F041F8FEF749FF234BC3
:10850C0000201978FEF746FF214B01201978FEF761
:10851C0041FF204C237843B100232370637813B1BF
:10852C00FFF790FF01E0FFF79FFF1B4DFEF726FFC3
:10853C00FEF714FEFEF746FE2B78D90707D52B78ED
:10854C0003F0FE032B70FFF731F9FFF74DF92A7892
:10855C00114B92070AD51A7802F0FD021A70FFF738
:10856C003BF9A38813B10B4A013B9380A388094DB7
:10857C00002BCED1AB78002BCBD0FEF78FFEAB7897
:10858C00013BAB700A23AB80C3E700BFF9070020A7
:10859C00FA070020B0070020AF07002010B500F14B
:1085AC004002034603491C78091ACC540133934208
:1085BC00F8D110BDB807002070B5054602F04CF894
:1085CC00284602F07BF805F140062C46074B204666
:1085DC005B1B1A1951781B5D023403EB012189B224
:1085EC0002F08AF8B442F1D170BD00BFB807002088
:1085FC0038B50E4C0E48FFF7D1FF2378FF2B05D171
:10860C0001F0BEF90A48FFF7D7FF09E0A37EFF2B64
:10861C00F6D000201921657E01F0A0F98542EFD13A
:10862C006078BDE8384001F079B900BFB807002088
:10863C0000FC01082DE9F347624C3D200121FFF7B6
:10864C00F3FB4FF00008FF23204601A90426012567
:10865C001027ADF804308DF80780FFF71DFB4FF4A1
:10866C008063204601A9ADF804308DF806508DF8D2
:10867C000770FFF711FB4FF4634320460DEB060127
:10868C00ADF804304FF0180A8DF80760FFF704FBC3
:10869C004FF4C05320460DEB0601ADF804308DF8B5
:1086AC0007A08DF80650FFF7F7FA20464FF6FF713A
:1086BC0004F58064FFF746FB032320460DEB06010F
:1086CC00ADF804308DF80780FFF7E6FA40F6182372
:1086DC0020460DEB0601ADF804304FF480498DF8BF
:1086EC000760FFF7D9FA482320460DEB06018DF8F9
:1086FC000730ADF80490FFF7CFFA4FF4244320462F
:10870C000DEB0601ADF804308DF807A08DF806507E
:10871C00FFF7C2FA4FF48F5320460DEB0601ADF86C
:10872C0004308DF807708DF80650FFF7B5FA204627
:10873C004FF6FF71FFF706FB20464946FFF700FB9B
:10874C0020464FF4807104F58064FFF7F9FA3F235B
:10875C0020460DEB0601ADF804308DF80780FFF7CD
:10876C009BFA4FF6807320460DEB0601ADF80430F2
:10877C008DF807708DF80650FFF78EFA20464FF6ED
:10878C00FF71FFF7DFFA20464FF4E45104F58064E3
:10879C00FFF7D6FA20460DEB0601ADF804608DF814
:1087AC0007708DF80650FFF777FA20464FF6FF71E9
:1087BC00FFF7C8FA20463146FFF7C2FA02B0BDE80F
:1087CC00F08700BF000801402DE9F0474FF48040CE
:1087DC0092B00121FFF734FB494E01200146FFF70F
:1087EC0017FB3046FFF7A2F9464F474BDFF824A1A1
:1087FC0000244FF00A084FF0800907A94FF40055E8
:10880C003046089309940B940D940E940F94109584
:10881C001194CDF81CA0CDF82880CDF83090FFF73E
:10882C00FDF93846FFF782F9384B07A9089338460B
:10883C00102309931095CDF81CA00125CDF82880A4
:10884C00CDF83090FFF7EAF90E2301A88DF804302B
:10885C008DF805408DF806408DF8075002F018F899
:10886C000F2301A88DF804308DF805408DF80640D3
:10887C008DF8075002F00CF838462A460221FFF713
:10888C00F6F92A4630460221FFF7F1F94FF48273CC
:10889C00ADF80A300223ADF80840ADF80C40ADF845
:1088AC000E301B4C4FF40073ADF812301823ADF89A
:1088BC0014302046072302A9ADF81830ADF810503B
:1088CC00ADF8169001F034FF30464146FFF7D7F96A
:1088DC0038464146FFF7D3F938462946FFF7BCF92D
:1088EC0030462946FFF7B8F920462A46032101F005
:1088FC004AFF2046294601F03AFF12B0BDE8F08746
:10890C004400024058000240F50500205E0700209C
:10891C00003800400C3800402DE9FF410120014691
:10892C00FFF78EFA8F2300251027ADF808304FF093
:10893C00804009230121ADF80430ADF80A50ADF8A0
:10894C00067001F088FF01A94FF0804001F024FF70
:10895C0001210A464FF0804001F074FF01241C23D2
:10896C0068468DF800308DF801508DF802508DF866
:10897C00034001F08DFF21464FF0804001F056FF7F
:10898C0021460220FFF75CFA2F4B304EB3F80080E3
:10899C0030463B232146ADF80430ADF80880ADF8E5
:1089AC000A50ADF8067001F056FF304601A901F0EF
:1089BC00F3FE3046414601F05AFF2246214630462E
:1089CC0001F040FF1D2368468DF800308DF80150F2
:1089DC008DF802508DF8034001F05AFF30462146C5
:1089EC0001F024FF21460420FFF72AFA06F58066E1
:1089FC0040F2CF73ADF80830304623232146ADF852
:108A0C000430ADF80A50ADF8067001F024FF304682
:108A1C0001A901F0C1FE21462246304601F012FFA9
:108A2C001E2368468DF800308DF801508DF80250E9
:108A3C008DF8034001F02CFF3046214601F0F6FE84
:108A4C0004B0BDE8F08100BFE4AA000800040040B7
:108A5C0030B5194D87B04FF480200121FFF7F0F9A4
:108A6C0028460121FFF74CFA47F612230024029303
:108A7C0028460C2302A9ADF81230ADF80C40ADF825
:108A8C000E40ADF81040ADF81440FFF7E5F928465C
:108A9C0040F225510122FFF73FFA27238DF80430CD
:108AAC0001A801238DF805408DF806408DF807309C
:108ABC0001F0EEFE07B030BD0048004070B54FF439
:108ACC00007092B00121FFF7AFF9002501244FF49B
:108ADC00602310265F4802A9049302958DF80C4080
:108AEC008DF80D5005958DF8186001F0BFFC5948B4
:108AFC0029460622042301F00AFD56482146052288
:108B0C00042301F004FD534802210822042301F040
:108B1C00FEFC504803210722042301F0F8FC042139
:108B2C000B464C480A2201F0F2FC4A480521092266
:108B3C00042301F0ECFC474806210C22042301F02D
:108B4C00E6FC444807210B22042301F0E0FC4148D9
:108B5C0008210F22042301F0DAFC3E480921324699
:108B6C00042301F0D4FC3B480A210222042301F027
:108B7C00CEFC38480B212246042301F0C8FC042209
:108B8C00134634480C2101F0C2FC32480D2103225B
:108B9C00042301F0BCFC0E210A462E48042301F0EC
:108BAC00B6FC0D2204232B480F2101F0B0FC294800
:108BBC00214601F088FC2146264801F07BFC264822
:108BCC00FEF7B4FF254B24480793254B07A90893C0
:108BDC0080230C934FF400730D934FF480630E932A
:108BEC0020230F934FF48053109309950A960B95FD
:108BFC001195FFF713F8224617480221FFF737F8B3
:108C0C0021461548FFF728F80B2301A88DF80430EE
:108C1C008DF805508DF806508DF8074001F038FEA0
:108C2C000C48214601F04FFC0A4801F055FC09485C
:108C3C0001F057FC0028FAD1064801F056FC054813
:108C4C0001F058FC0028FAD10248012101F056FC31
:108C5C0012B070BD00240140080002404C240140B9
:108C6C00281E0020F0B585B001F09AFC00200921E7
:108C7C00FFF76AF808210020FFF766F800240125A9
:108C8C004FF40076102702A88DF80C4002968DF850
:108C9C000D708DF80E5001F091FC4FF4807302A80A
:108CAC0002938DF80C408DF80D708DF80E5001F07C
:108CBC0085FC172301A88DF804308DF805408DF83C
:108CCC0006408DF8075001F0E3FD13483146FFF7DD
:108CDC0031F8124C124B84F8400010B102221A7079
:108CEC0000E01D704FF400710E48FFF723F84FF4AD
:108CFC00807184F841000B48FFF71CF894F8411080
:108D0C0084F842000020FEF745FB012094F8421045
:108D1C00FEF740FB05B0F0BD000C0140B807002089
:108D2C00350000200008014037B500F035FC002468
:108D3C0001F068FA0125142301A88DF804308DF890
:108D4C0005408DF806408DF8075001F0A1FD132366
:108D5C0001A88DF804308DF805408DF806408DF88B
:108D6C00075001F095FD284600F022FC03B030BD01
:108D7C00684620F007018D4601B500210648FEF734
:108D8C006BFF4FF40050FEF77DFF044B01221A706D
:108D9C00BDE8014085467047440002401C0000209D
:108DAC00684620F007018D4601B500210548FEF705
:108DBC0053FF4FF40030FEF765FFBDE801408546D8
:108DCC00704700BF58000240684620F007018D46EE
:108DDC0001B501214FF0804001F04BFD1A4B1A7880
:108DEC00012A03D91A78013AD2B21A701978C9B289
:108DFC00012907D1154B1B7823B9134A144813705A
:108E0C0001F07CFB134B1A785AB1013AD2B21A70AA
:108E1C003AB9114A12781A70104A117841F00101CE
:108E2C0011705B780B4A5BB1013BDBB253703BB901
:108E3C00094B5B785370094B1A7842F002021A7096
:108E4C00BDE801408546704720000020AC0700209B
:108E5C00002401401E000020D2AA0008AF07002009
:108E6C00684620F007018D4619B51F4C2378032B5B
:108E7C0003D11E4B1B78002B31D02378032B04D14C
:108E8C001A4B1A780AB100221A702278184B53F830
:108E9C00223098472378032B08D1164B16481A78A2
:108EAC00164B1B7803EB8202154B03E00E4B12485A
:108EBC001A78144B33F8121001F0D9FC23780133D3
:108ECC00DBB2032B237002D9074B00221A700A481D
:108EDC00012101F0CEFCBDE81940854670470648DB
:108EEC00052101F0C4FCF2E7890700201C000020DA
:108EFC00D4AA00081D060020000400403500002004
:108F0C0000AA0008E4AA0008684620F007018D4674
:108F1C0001B5FEF777FA0448012101F0AAFCBDE87F
:108F2C0001408546704700BF00080040684620F0AD
:108F3C0007018D4601B500218CB02C48FEF78CFE44
:108F4C002B4B4FF400711A780132D2B2032A1A70EB
:108F5C0084BF00221A701A78032A1AD8DFE802F0AC
:108F6C00020A1015234A4FF440715161224A012123
:108F7C0011700EE01F4A11614FF48071516108E0CD
:108F8C001C4A51614FF4807102E01A4A4FF440714F
:108F9C0011611A4A01A901921A78194B134803EB73
:108FAC00421310220492802206924FF40072079210
:108FBC004FF48062089220220293099200234FF40E
:108FCC008052039305930A920B93FEF727FE02201F
:108FDC00FEF758FE05480121FEF73EFE094B032221
:108FEC001A700CB0BDE8014085467047080002407D
:108FFC008A07002000100140AC0700204C240140DF
:10900C00281E002020000020684620F007018D4615
:10901C0001B54FF4007001F00BFB98B14FF40071E7
:10902C001748FEF787FE174B014693F84120824202
:10903C0004D083F841000020FEF7ACF94FF4007027
:10904C0001F004FB4FF4807001F0F2FA98B14FF488
:10905C0080710B48FEF76EFE0A4B014693F84220D6
:10906C00824204D083F842000120FEF793F94FF4BA
:10907C00807001F0EBFABDE801408546704700BFF7
:10908C0000080140B8070020684620F007018D4613
:10909C0001B501F089F9BDE8014085467047684685
:1090AC0020F007018D4601B500F0CEFABDE8014075
:1090BC0085467047684620F007018D4619B540F289
:1090CC0025510A48FEF74EFF58B10848FEF740FFFD
:1090DC0004460748FEF770FF18B10548E1B2FEF7E9
:1090EC007DFFBDE819408546704700BF0048004031
:1090FC00101300207047704702207047012904D8D4
:10910C00022834BF00200220704702207047000064
:10911C0008B5044B1B6800F047FBBDE80840FEF7A0
:10912C00CFBC00BF10080020054B10B51A681C46B8
:10913C00052A01D1FFF77EF90423236010BD00BF7F
:10914C00100800202D4B10B51A681C46052A01D1B9
:10915C00FFF770F92A492B4B09781B6801290CBFC2
:10916C0029492A490022C9799A72DA725972002067
:10917C00FEF784FB00204FF40071FEF787FB002004
:10918C001021FEF791FB00204021FEF729FC48211D
:10919C000020FEF715FC0020FEF7DDFB1C4B002029
:1091AC0093F82C10FEF756FC0020FEF7C1FB0120B3
:1091BC000021FEF76BFB01209021FEF701FC012042
:1091CC004021FEF739FC01202021FEF76DFB012028
:1091DC005021FEF705FC01204021FEF73BFC4FF42B
:1091EC0040510120FEF779FB0020FEF7A1FB002087
:1091FC0000F0B8FF0123236010BD00BF1008002051
:10920C0035000020C82000209DB4000818B40008C8
:10921C0038000020044B9B7A23B1044B05221A60C2
:10922C00FFF700B9704700BFA820002010080020ED
:10923C00014900F093BD00BF6800002073B5174BC7
:10924C001B68DA78052A26D81549164B2AB101EB8A
:10925C008202966B0022013E0DE08A6B11789970A8
:10926C0052780421DA700CE0402C224609D01D55AE
:10927C00991800244C7016F8015F941CE1B2002D73
:10928C00F2D119700322ADF8041069465A7000939C
:10929C0000F064FD00E0002002B070BDC82000208A
:1092AC0038000020A81E002000F07F00012810B517
:1092BC0008D1054B00241B6820469C615C82A047AA
:1092CC00204610BD022010BDC8200020034B1B7887
:1092DC00022B0CBF0249034900F040BD35000020B1
:1092EC008800002090000020014B00221A6070477B
:1092FC00100800203B4B82B01A6842F001021A6041
:10930C005968394A0A405A601A6822F0847222F469
:10931C0080321A601A6822F480221A605A6822F489
:10932C00FE025A604FF41F029A60002200920192D2
:10933C001A6842F480321A601A6802F40032019200
:10934C00009A01320092019A1AB9009AB2F5A06FF4
:10935C00F2D11A6812F4003218BF01220192019A5C
:10936C00012A05D0214B4FF000629A6002B0704781
:10937C001F4A116841F010011160116821F00301BE
:10938C001160116841F0020111605A685A605A6804
:10939C0042F400525A605A6842F480625A605A6829
:1093AC0042F400425A605A6822F47C125A605A689D
:1093BC0042F424125A601A6842F080721A601968DA
:1093CC00084A8901FBD5516821F0030151605168AD
:1093DC0041F0020151605A6802F00C02082AFAD1DD
:1093EC00C0E700BF001002400000FFF800ED00E0F5
:1093FC00002002402DE9F04700263446DFF8749136
:10940C00DFF87481554A14F80950E7B236F80810A1
:10941C0013882DB10A3B9BB218B20328D8BF042382
:10942C001BB2994240F39480CB1A00F09280A3F1C6
:10943C00500000B20028B2F800C0C0F28A8048493F
:10944C00097802291ED84FF4C87A0AFB00F00CF5F3
:10945C00A07C1FFA8CFC90FBFCF000B24FEA412C74
:10946C0040F2FF1A5045D4BF0CEB00010CEB0A0183
:10947C003C48415C4DB9002960D03B4B0222E25480
:10948C00002504E07F21002DF7D0012D13D17E297A
:10949C00354B08DD10221A553846FEF7D5F8002D4D
:1094AC0048D102254AE01A5D013AD2B21A55002A77
:1094BC00F0D0012542E0022D1ED12B4819B904230E
:1094CC000355032537E0015D11B10139015532E037
:1094DC009188264A5B1A1288C3EBC31393FBF2F1F3
:1094EC00234B81F30701F25A914224D0F1523846B2
:1094FC00C9B2FEF7B1F81EE0032D1CD11A4B11B105
:10950C0000221A5516E01A5D013AD2B21A5592B9D8
:10951C00DFF85CA036F80A3023B126F80A1038467A
:10952C00FEF79AF800252AF8065038462946FEF729
:10953C008BF800E00225002328F8063009F80450C7
:10954C000134402C06F102067FF458AFBDE8F087D9
:10955C000023002DF2D0002197E700BFA81F0020A8
:10956C00D4000020D8AD0008B01F0020FC0700205C
:10957C00E81E0020681F0020F01F002010B5044CCE
:10958C0061800449A2809A1A2080E3800A8010BD71
:10959C00A81F0020FC07002008B50020FEF7EAFBFE
:1095AC00BDE808404FF400000121FEF749BC000063
:1095BC0020B105484FF48061FEF7C2BB02484FF45E
:1095CC008061FEF7BFBB00BF00080140054B10B522
:1095DC001A681C46052A01D1FEF72CFF03232360D1
:1095EC0010BD00BF1008002010B50A4B0A4C9B7A26
:1095FC0023B105232360FEF715FF06E02368052B36
:10960C0001D1FEF717FF01232360BDE81040FFF7DF
:10961C008BBB00BFA82000201008002008B5FEF767
:10962C0027F9BDE8084020F400500004000CFEF7B8
:10963C0019B908B5FEF71CF9BDE8084020F4807094
:10964C000004000CFEF70EB970B54F4C4F4D23685B
:10965C004F4E9BB22B802A88338888B013401B0452
:10966C0001D500F0EBFD2A8833881340580505D549
:10967C004FF6FF332360474B5B6898472A88338843
:10968C001A40510444BF4BF6FF7222602A881340E3
:10969C009A0404D54DF6FF732360FFF7BFFF2A88A9
:1096AC0033881340DB0405D54EF6FF73236000208E
:1096BC0000F0E0F82A883388134018050BD5364B98
:1096CC001B7813B100F080F802E0022000F0D2F811
:1096DC004FF2FF7323602A8833881340D90551D584
:1096EC004FF6FF6323602D4B1B6813F4004F2C4B7C
:1096FC0041D01A6801321A601A68032A3DD92949E7
:10970C000A6812F0080238D1086880B2586002F179
:10971C00805000F5B8508000056808AE06EB82005A
:10972C000132ADB2082A40F8205CF0D15A6842F000
:10973C0001025A605A6892B20A605A6822F0010219
:10974C005A605A6892B20A6022685205FCD50E4AD9
:10975C004FF6FF311160002208AC04EB820002F1DD
:10976C00805150F8200C01F5B8510132890080B2BB
:10977C00082A0860F0D100221A60072000F07AF85D
:10978C00FFF757FF08B070BD445C0040702000200C
:10979C00CC2000203800002010010020485C004044
:1097AC0000080020405C004008B50120FFF700FFD6
:1097BC00034A4FF4E0531380024A0020136008BDA3
:1097CC00CC200020405C00401F4B30B519680022B3
:1097DC0089B202F1805000F5B850800004681B4833
:1097EC00A4B240F822400132082A0546F1D141F4D6
:1097FC00806221F001011A6088B242F001021A6005
:10980C0040F480621A60124A11684905FBD54FF684
:10981C00FF311160002255F8224002F1805101F510
:10982C00B85101328900A4B2082A0C60F3D1BDE80A
:10983C00304040F4816018601A6892B242F0040221
:10984C001A60FFF7C3BE00BF405C004078200020C8
:10985C00445C004010B5064C4FF6FB732268134075
:10986C002360FFF7C1FE4FF47D43236010BD00BFA2
:10987C00405C004010B5264C072818BF2070237898
:10988C00052B41D8DFE803F0030B1317212C214BD8
:10989C001B6813B9FFF7DEFF36E0052335E0FFF751
:1098AC00D9FF042323701B4B01221A6010BD022325
:1098BC006370032329E06378013BDBB26370637848
:1098CC0023BB134B04221A7010BD134B1A6892B2AF
:1098DC0042F010021A60052323700A23637010BD36
:1098EC006378013BDBB26370637803F0FF016BB903
:1098FC00094A4FF6EF73106803401360044B0622BD
:10990C001A70044B196010BD0623237010BD00BFE4
:10991C00742000200C080020405C0040431CDBB28B
:10992C000C4A00F15101012B917211D0421E072AF1
:10993C0005D8094B202231305A7398737047102B7D
:10994C0006D8054B20225A73273031229A73D873CC
:10995C00704700BF1101002098000020013083B235
:10996C0000208B4206D2054AD25C01331044C0B2AF
:10997C009BB2F6E74042C0B2704700BFB807002068
:10998C0038B5134C052100250222A171FF210123BA
:10999C00627162726273217461746275284603226B
:1099AC00192125706570A370E3702371E371237224
:1099BC00A572E3722373A573E373A574E374237523
:1099CC00A575E2752376FFF7C9FFA576607638BDDD
:1099DC00B807002010B5064C18B9236801221A826A
:1099EC0010BD044B1B681B68984720680A3010BDDB
:1099FC00C8200020C420002010B5064C18B92368DC
:109A0C0001221A8210BD044B1B689B689847206882
:109A1C000C3010BDC8200020C420002010B5204BF5
:109A2C0018B91B6802221A8210BD1E4A1968002040
:109A3C0010800C78134614F07F040DD14A7A9106ED
:109A4C0044BF0221197012F0400F1A7814BF42F073
:109A5C00010222F0010214E0012C1FD0022C1ED1B5
:109A6C00497901F00F02920002F1804202F5B842EE
:109A7C0011F0800F126806D002F03002102A07D1C4
:109A8C0001221A7004E002F44052B2F5805FF6E74E
:109A9C00054B1B681B699847024810BD104610BD4A
:109AAC00C820002098200020C4200020234A2DE943
:109ABC00F84314689046238A267A214FA3B9042EC2
:109ACC0012D120490A78012A0AD11F4A10681F4A6C
:109ADC0080B202445200136030223A800B7027E0AF
:109AEC0010233B80072623E0A58AAB428CBF0226BD
:109AFC0004269D4228BF1D462846A36998478146E7
:109B0C000020FDF77DFF2A460146484600F084FC04
:109B1C0029460020FDF790FF238A4FF440525B1B2F
:109B2C002382638A1D4430233B80094B65821A8053
:109B3C00D8F800301E72BDE8F88300BFC8200020A2
:109B4C00D020002014080020505C0040023000207F
:109B5C00CE20002010B50A4B0A491B684978DA78E8
:109B6C0091420AD3997841B99C8834B99A72064BC0
:109B7C001B685B689847204610BD022010BD00BFD3
:109B8C00C8200020D0000020C420002038B50E4A88
:109B9C000E4C1268236892695879D97890472368DB
:109BAC009A7A7AB170B91A7962B99D7855B9084B1D
:109BBC001B68DB689847236828465A79DA72DA788A
:109BCC001A7338BD022038BDA0200020C820002008
:109BDC00C420002038B5314B1B68187810F07F007A
:109BEC0004D15A7A22F020025A7238BD022853D17D
:109BFC005A88002A51D11A79002A4ED15A79284D07
:109C0C0022F08000840004F1804101F5B84109681C
:109C1C002D7812F0800F14BF01F0300101F4405187
:109C2C00A84239D2002937D09B7A002B34D004F1CA
:109C3C00804404F5B844120623680CD503F03003B5
:109C4C00102B23D1C4B22046FDF7A7FE20463021AD
:109C5C00FDF72AFE1AE003F44053B3F5805F15D1EB
:109C6C0028B9104B93F82C10FDF7F4FE01E0FDF72A
:109C7C0082FE236823F4804323F070039BB283F4A9
:109C8C00405343F4004343F080032360064B1B68AE
:109C9C005B699847002038BD022038BDC8200020E1
:109CAC00D000002038000020C420002038B51F4B05
:109CBC001F4D19682D784A7922F08004A30003F116
:109CCC00804000F5B840006812F0800F14BF00F01F
:109CDC00300000F44050AC4226D24C8824BB18B360
:109CEC00897A09B303F1804303F5B84312F0800F6E
:109CFC001A6807D022F4E04222F0400292B282F0BD
:109D0C00100206E022F4804222F0700292B282F439
:109D1C00805242F4004242F080021A60054B1B68EC
:109D2C009B699847002038BD022038BDC820002010
:109D3C00D0000020C420002008B5064B1B685A7ABE
:109D4C0042F020025A72044B1B68DB6998470020D2
:109D5C0008BD00BFC8200020C4200020054B1A6895
:109D6C00538A18B98988CB1A13827047086818442B
:109D7C00704700BFC820002008B50B4B002093F89B
:109D8C002C10FDF767FE094B1B68187A082806D1C2
:109D9C00074B4FF480521A80064B10221A80B0F1F8
:109DAC0009035842584108BD38000020C820002043
:109DBC00CE200020D0200020F7B5964F964B3A6865
:109DCC00964D92B213442E685B001C68337A092BB3
:109DDC0015D0A4B2640004F1804404F5C044237887
:109DEC00337063787370A088FDF764FE70802089EF
:109DFC002E68FDF75FFEB080A2892B68DA802B6895
:109E0C0001221A72DA885C78002A5ED11A7812F074
:109E1C007F0237D1092C02D1FFF79CFE41E0052CC3
:109E2C000FD193F90320002A01DA08234AE09A782B
:109E3C00002AFAD19A88002AF7D19B7A002B34D0C9
:109E4C00F3E7032C10D1DA78012A07D0744B2046A3
:109E5C001B685B699847032825D132E09B88002B4F
:109E6C00F4D1FFF769FF1CE0012CEFD1DA78012A5D
:109E7C00ECD19A88002AE9D15B7A9906E6D5FFF7EE
:109E8C00A9FE0EE0012A04D10B2CDFD1FFF77EFED8
:109E9C0007E0022ADAD1012CF1D0032CD6D1FFF73E
:109EAC0005FF10B1D2E70028BFD13A685D4B92B2E2
:109EBC0013445B0000221A605B4B30221A8006238D
:109ECC0000E009232A681372D0E0062C13D11A780B
:109EDC00520678D19A78524B012A02D11B68DB6961
:109EEC0068E0022A02D11B681B6A63E0032A6AD16C
:109EFC001B685B6A5EE0002C3DD15988002962D159
:109F0C005A6822F47F42B2F5003F5CD11A7812F005
:109F1C007F0204D19B88002B00F0AC8053E0012A17
:109F2C000DD13F4A587912689269904700284AD15E
:109F3C003A4B1B689B7A002B40F09C8043E0022A32
:109F4C0041D15B79394803F00F018A0002F180425C
:109F5C0002F5B8421268007813F0800F14BF02F0BB
:109F6C00300202F4405281422DD213F0700F2AD1EC
:109F7C00002A7FD127E0082C03D11B785B067BD00D
:109F8C0021E00A2C1FD11A7802F07F02012A1AD183
:109F9C009A7AC2B15988B1B95A6822F47F42B2F5A3
:109FAC00803F10D11E4A5879126892699047002858
:109FBC0064D008E03BB12A680024548293612046A7
:109FCC00984720460AE0164B1A682B681269587895
:109FDC009047032802D1114B1B6805E02B684FF604
:109FEC00FF711A8A8A4201D1092203E0022800D0AB
:109FFC0012B908221A7239E093F9001000292FDAED
:10A00C00D988019101988242054811D9019A1A8286
:10A01C001FE000BF505C004004300020C82000202E
:10A02C00A020002002300020D0200020D0000020F2
:10A03C008A420ED2016891F82C108A4201D200217A
:10A04C0005E092FBF1F401FB142212B901210C4A38
:10A05C001170026892F82C209A82FFF727FD05E018
:10A06C0003221A72074B4FF440521A80FFF784FEFA
:10A07C0003B0F0BD044B9EE7044B9CE7044B9AE7FE
:10A08C0014080020CE200020299A0008E19900082D
:10A09C00059A0008F8B52D4D2C68237A022B4DD06B
:10A0AC00042B4BD0032B01D0052B41D1A369228A61
:10A0BC00ABB1A2B1A68A964228BF16463046984745
:10A0CC00238A07469B1B2382638A002033446382C6
:10A0DC00FDF7A4FC32460146384600F0B5F9238A58
:10A0EC0053B11B4B00204FF4405201461A80FDF730
:10A0FC00A3FC184B30221A80238AA28A9A4202D8D7
:10A10C002B68032202E01BB12B6805221A720CE0AB
:10A11C002A6806211172104A1168104A89B20A4441
:10A12C00520013600B4B30221A802B681B7A06E00E
:10A13C00072B03D10A4B1B68DB68984708232A6856
:10A14C001372BDE8F840FFF717BE00BFC82000200F
:10A15C00CE200020D0200020505C00400230002097
:10A16C00A020002070B50D4B1D780023AB4210D2FF
:10A17C0003F1805202F5B8529400266843F4004172
:10A18C0040F60F7241F0800132400A4322600133E5
:10A19C00ECE7034B40F08000186070BDD00000204D
:10A1AC004C5C004010B5134C23681A7A022A01D07B
:10A1BC00042A04D1FFF77AFC23681B7A13E0062AE1
:10A1CC0010D15A78052A09D11A78520606D1D878B6
:10A1DC00FFF7C8FF084B1B681B6A9847074B1B68A7
:10A1EC009B689847082322681372BDE81040FFF75C
:10A1FC00C3BD00BFC8200020C4200020A020002028
:10A20C007047000008B5074A074B08491360022243
:10A21C001A72074B074A1360074A1B68116098476C
:10A22C0008BD00BFC8200020A8200020AC000020E2
:10A23C0038000020A0200020C420002073B500238B
:10A24C00ADF80630504B1A68504B91B2120419807D
:10A25C0040F197801A884E4C02F00F022270002AAF
:10A26C0061D14C4C4C4E22684C4D92B232803288AB
:10A27C0002F030022A80328802F440523280216887
:10A28C004BF6BF720A4082F4005282F0200242F474
:10A29C00004242F0800222601B88D80607D4226854
:10A2AC0048F60F7313402360FFF77CFF1BE0236815
:10A2BC009BB2ADF80630BDF80630190507D52268FB
:10A2CC0040F68F7313402360FFF776FD0BE0BDF86B
:10A2DC0006301BB2002BB5DA226840F68F731340A0
:10A2EC002360FFF7D7FE22684BF6BF73134032880A
:10A2FC00D204328848BF83F4805396042A8848BF1E
:10A30C0083F40053D4062A8848BF83F010039006C8
:10A31C0048BF83F0200343F4004343F080031D4AFD
:10A32C009BB213602DE0930003F1804303F5B84317
:10A33C00196889B2ADF80610BDF8061009B20029EB
:10A34C0009DA186840F68F7101401960144B013A14
:10A35C0053F822309847BDF8063019067FF572AFD6
:10A36C00217848F60F728B0003F1804303F5B84354
:10A37C001868013902401A600A4B53F8213098478B
:10A38C0060E702B070BD00BF445C0040702000204C
:10A39C00A4200020005C0040CE200020D020002013
:10A3AC00D8000020F400002008B5164A164B11689E
:10A3BC0088B20904188024D547F6FF7111601A88F9
:10A3CC00124B02F00F021A70930003F1804303F555
:10A3DC00B8431968080407D5186840F68F71014016
:10A3EC001960013A0A4B08E00906DED5186848F6F0
:10A3FC000F7101401960074B013A53F8223098470E
:10A40C00D3E708BD445C004070200020A42000204D
:10A41C00D8000020F400002030B501F100510132C9
:10A42C0001F54051521049000023934200F1020003
:10A43C0009D010F8015C10F8024C44EA052421F80C
:10A44C0023400133F1E730BD10B501F10051013269
:10A45C0001F54051521049000023934205D051F8A8
:10A46C00234020F813400133F7E710BD43680A6816
:10A47C0023F4702323F4807313430A7910B543EA51
:10A48C00022343608A68CB6884681A43084B2340D4
:10A49C0013434A7943EA420383600B7CC26A013B53
:10A4AC0022F47002DBB242EA0353C36210BD00BF58
:10A4BC00FDF7F1FF836811B143F0010301E023F0D4
:10A4CC00010383607047836811B143F4807301E02A
:10A4DC0023F4807383607047836843F008038360C0
:10A4EC0070478068C0F3C0007047836843F0040372
:10A4FC00836070478068C0F380007047836811B137
:10A50C0043F4A00301E023F4A003836070470929FE
:10A51C0070B50DD9A1F10A0404EB44040725A5403C
:10A52C00A340C66826EA050545EA0304C4600BE0AF
:10A53C0001EB41040725A54003FA04F4066926EA59
:10A54C00050545EA04030361062A0CD8013A02EB1F
:10A55C0082021F23934001FA02F2446B24EA0303A4
:10A56C001A43426370BD0C2A0CD8073A02EB8202E4
:10A57C001F23934001FA02F2046B24EA03031A43EB
:10A58C00026370BD0D3A02EB82021F23934001FA65
:10A59C0002F2C46A24EA03031A43C26270BD0000CB
:10A5AC00044B00221A605A609A60DA60024A5A61BF
:10A5BC00704700BF00040140FFFF0F00837930B5E6
:10A5CC000168027943B3194BCC431D6802F18042F8
:10A5DC0025401D605D6802F582322C405C60146879
:10A5EC002143116002689C68D1430C409C60DC687C
:10A5FC002140D9604179102906D19968114399609D
:10A60C00D9680A43DA6030BD01F1804303F5823327
:10A61C0019680A431A6030BD02F1804303F5823396
:10A62C001A6822EA0101196030BD00BF0004014024
:10A63C00054B1A685B69034004D010420CBF002024
:10A64C00012070471846704700040140014B5861C7
:10A65C00704700BF00040140034B044A5A6002F1EA
:10A66C0088325A60704700BF0020024023016745C2
:10A67C00084BDA68D10709D4DA68520708D4DB68CA
:10A68C0013F0100F0CBF04200320704701207047FB
:10A69C00022070470020024010B50446FFF7E8FF87
:10A6AC00012806D11CB1FFF7E3FF013CF8E70520B8
:10A6BC0010BD002C08BF052010BD000038B50546A4
:10A6CC004FF43020FFF7E8FF042812D1094C4FF467
:10A6DC003020236943F0020323616561236943F051
:10A6EC0040032361FFF7D8FF226941F6FD73134045
:10A6FC00236138BD0020024070B505464FF4005070
:10A70C000E46FFF7C9FF04280ED1084C4FF4005039
:10A71C00236943F0010323612E80FFF7BDFF2269FB
:10A72C0041F6FE731340236170BD00BF0020024050
:10A73C000B8810B54C88028823438C8802F4415254
:10A74C002343CC8823430C8923434C8923438C8992
:10A75C002343CC89234313439BB20380838B23F481
:10A76C0000631B041B0C83830B8A038210BD0388BC
:10A77C0019B19BB243F0400303E023F040031B04E8
:10A78C001B0C0380704783889BB20AB1194301E00C
:10A79C0023EA010181807047224A038890429BB2D0
:10A7AC0012D002F5006290420ED0B0F1804F0BD067
:10A7BC00A2F59832904207D002F58062904203D005
:10A7CC0002F58062904203D14A8823F07003134350
:10A7DC00154A904208D002F58062904204D023F4CE
:10A7EC004073CA889BB2134303808B8883850B8884
:10A7FC0003850C4B98420FD003F5006398420BD0A5
:10A80C0003F54063984207D003F58063984203D068
:10A81C0003F58063984201D10B7A0386012383826E
:10A82C00704700BF002C014000100040038819B194
:10A83C009BB243F0010303E023F001031B041B0C48
:10A84C000380704783899BB20AB1194301E023EA64
:10A85C00010181817047038819B19BB243F0040355
:10A86C0003E023F004031B041B0C0380704781845A
:10A87C007047C94389B201827047000040F0BF6045
:10A88C00024B40F40030D860704700BF00ED00E090
:10A89C00C27810B50378FAB1154A4478D26803F13E
:10A8AC006043D243C2F30222C2F1040104FA01F163
:10A8BC000F2424FA02F2847803F5614322400A4300
:10A8CC001201D2B283F8002303780122590903F054
:10A8DC001F0302FA03F306E05909012203F01F03D8
:10A8EC0002FA03F32031034A42F8213010BD00BFB5
:10A8FC0000ED00E000E100E021F0604121F07F017B
:10A90C00014B08439860704700ED00E038B501201A
:10A91C000D49FDF7F9F885B20C48FDF757FB08B95E
:10A92C00044606E001204FF40051BDE83840FCF726
:10A93C00D4BFA3B2AB4206D2034B0448195DFDF75A
:10A94C004DFB0134F5E738BDD2200020241C00203B
:10A95C0070B4840746D0541E002A41D0CDB20346B1
:10A96C0002E0621EE4B3144603F8015B9A07F8D1C7
:10A97C00032C2ED9CDB245EA05250F2C45EA054509
:10A98C0019D9264603F11002103E0F2E42F8105C26
:10A99C0042F80C5C42F8085C42F8045C02F11002CC
:10A9AC00F2D8A4F1100222F00F0204F00F041032BE
:10A9BC00032C13440DD91E462246043A032A46F8AA
:10A9CC00045BFAD8221F22F003020432134404F071
:10A9DC0003042CB1C9B21C4403F8011BA342FBD1E4
:10A9EC0070BC704714460346C2E700BFF000202934
:10A9FC0000F7404000000200050000000500760151
:10AA0C00A703000001000E00230000000400B600A4
:10AA1C00C7010000020026005F0000000300560082
:10AA2C00D700000000100140001001400010014050
:10AA3C000014014000040008001004000009111962
:10AA4C00000A141E51525354555657584748494AF8
:10AA5C004B4C4D4E3D3E3F404142434433343536E2
:10AA6C003738393A292A2B2C2D2E2F301F20212212
:10AA7C002324252615161718191A1B1C0B0C0D0E42
:10AA8C000F1011125B5C5D5E5F606162594F453B5C
:10AA9C0031271D13010203040506070850463C32FA
:10AAAC00281E140A5A0004181C201014080C010546
:10AABC00191D1115090D02061A1E12160A0E03078E
:10AACC001B1F13170B0F32FA15740008557500086D
:10AADC0075750008957500080A000A003200C80058
:10AAEC0000020406080A0C0E10121416181A1C1E6A
:10AAFC0020222426282A2C2E30323436383A3C3E5A
:10AB0C0001030507090B0D0F11131517191B1D1F39
:10AB1C0021232527292B2D2F31333537393B3D3F29
:10AB2C00000017006700B700070114006400B400B0
:10AB3C0004010000FA001D006D00BD000D011A009B
:10AB4C006A00BA000A01F200AA0023007300C300D5
:10AB5C00130120007000C0001001A2005A002A004E
:10AB6C007A00CA001A0124007400C40014015200B7
:10AB7C000A002F007F00CF001F012C007C00CC00AE
:10AB8C001C010200FD0037008700D70027013300AD
:10AB9C008300D3002301F500AD0038008800D800F5
:10ABAC00280139008900D9002901A5005D00420067
:10ABBC009200E20032013C008C00DC002C015500BC
:10ABCC000D0047009700E700370144009400E400B3
:10ABDC003401050000004D009D00ED003D014A00D0
:10ABEC009A00EA003A011100000018006800B80051
:10ABFC00080115006500B50005010000FB001E00F2
:10AC0C006E00BE000E011B006B00BB000B01F300BD
:10AC1C00AB0026007600C600160121007100C100B1
:10AC2C001101A3005B0029007900C900190125005E
:10AC3C007500C500150153000B0030008000D000DA
:10AC4C0020012D007D00CD001D010300FE0036000B
:10AC5C008600D600260132008200D2002201F600C6
:10AC6C00AE003E008E00DE002E013A008A00DA00B3
:10AC7C002A01A6005E0041009100E10031013D0077
:10AC8C008D00DD002D0156000E0048009800E800F4
:10AC9C00380145009500E5003501060000004E0026
:10ACAC009E00EE003E014B009B00EB003B011200AE
:10ACBC00000019006900B900090116006600B60011
:10ACCC0006010000FC001F006F00BF000F011C00FC
:10ACDC006C00BC000C01F400AC0027007700C7002E
:10ACEC00170122007200C2001201A4005C002800AF
:10ACFC007800C80018012B007B00CB001B0154000E
:10AD0C000C0031008100D10021012E007E00CE000C
:10AD1C001E010400FF0035008500D500250134001C
:10AD2C008400D4002401F700AF003F008F00DF0047
:10AD3C002F013B008B00DB002B01A7005F004000C4
:10AD4C009000E000300143009300E3003301570012
:10AD5C000F0049009900E900390146009600E60011
:10AD6C003601070000004F009F00EF003F014C0030
:10AD7C009C00EC003C011300F000202900000002B4
:10AD8C000303010203030303030202030100000097
:10AD9C00000001010100000000000000004D4944CA
:10ADAC004920506F7274005374616E64616C6F6EE5
:10ADBC006520506F727400466F63757372697465A9
:10ADCC0020412E452E204C74640009040000000024
:10ADDC000000000000000000000000010101010162
:10ADEC000101010101010101010101010101010147
:10ADFC000101010101010101010101010101010137
:10AE0C00010101010101010102020202020202021E
:10AE1C000202020202020202020202020202020206
:10AE2C0002020202020202020202020202020202F6
:10AE3C0002020202020202020202020202020202E6
:10AE4C0002030303030303030303030303030303C7
:10AE5C0003030303030303030303030303030303B6
:10AE6C00030303030303030304040404040404049E
:10AE7C000404040404040404040404040404040486
:10AE8C00040404040404050505050505050505056C
:10AE9C000505050505050505050505050506060653
:10AEAC000606060606060606060606060606060636
:10AEBC000607070707070707070707070707070717
:10AECC0007070808080808080808080808080808F8
:10AEDC0008090909090909090909090909090A0AD5
:10AEEC000A0A0A0A0A0A0A0A0A0A0B0B0B0B0B0BB0
:10AEFC000B0B0B0B0B0C0C0C0C0C0C0C0C0C0C0D8A
:10AF0C000D0D0D0D0D0D0D0D0E0E0E0E0E0E0E0E5D
:10AF1C000F0F0F0F0F0F0F0F10101010101010102D
:10AF2C0011111111111111121212121212121313FA
:10AF3C0013131313141414141414151515151515C3
:10AF4C001616161616171717171718181818181983
:10AF5C00191919191A1A1A1A1A1B1B1B1B1C1C1C3F
:10AF6C001C1C1D1D1D1D1E1E1E1E1F1F1F1F2020F5
:10AF7C00202121212122222222232323242424259F
:10AF8C002525252626262727272828282929292A42
:10AF9C002A2A2B2B2C2C2C2D2D31363A3E43474B69
:10AFAC005054585C6165696E72767B7F7F7F7F7FC2
:10AFBC007F7F7F7F7F7F7F7F7F7F7F7F7F7F7F7F95
:10AFCC007F7F7F7F7F7F7F7F7F7F7F7F0000000081
:10AFDC000000000000000000000000010101010160
:10AFEC000101010101010101010101010101010145
:10AFFC000101010101010101010101010101010135
:10B00C000101020202020202020202020202020216
:10B01C000202020202020202020202020202020204
:10B02C0002020202020202020202020202020202F4
:10B03C0002020202030303030303030303030303D8
:10B04C0003030303030303030303030303030303C4
:10B05C0003030303030304040404040404040404AA
:10B06C000404040404040404040404040404040494
:10B07C000505050505050505050505050505050574
:10B08C000505050506060606060606060606060658
:10B09C00060606060606070707070707070707073A
:10B0AC000707070707080808080808080808080819
:10B0BC00080809090909090909090909090A0A0AF3
:10B0CC000A0A0A0A0A0A0A0A0B0B0B0B0B0B0B0BCC
:10B0DC000B0C0C0C0C0C0C0C0C0C0D0D0D0D0D0D9F
:10B0EC000D0D0E0E0E0E0E0E0E0E0F0F0F0F0F0F70
:10B0FC000F10101010101011111111111112121239
:10B10C0012121213131313131314141414141515FD
:10B11C0015151516161616161717171717181818BB
:10B12C0018191919191A1A1A1A1B1B1B1B1C1C1C6F
:10B13C001C1D1D1D1D1E1E1E1F1F1F1F202020211C
:10B14C0021212222222323232424242525252626BB
:10B15C002627272828282929292A2A2B2B2B2C2C4F
:10B16C002D2D2E2E2E2F2F303031313232333333D2
:10B17C0034343535363637383839393A3A3B3B3C46
:10B18C003C3D3E3E3F3F40414142424344444546A4
:10B19C0046474848494B4E50525557595C5E606380
:10B1AC0065686A6C6F717376787A7D7F7F7F7F7F3D
:10B1BC007F7F7F7F7F7F7F7F7F7F7F7F7F7F7F7F93
:10B1CC007F7F7F7F7F7F7F7F7F7F7F7F000000007F
:10B1DC00000000000000000000000001010101015E
:10B1EC000101010202020202020202030303030331
:10B1FC0003030404040404040405050505050505FE
:10B20C0006060606060606070707070707070808C7
:10B21C0008080808090909090909090A0A0A0A0A91
:10B22C000A0A0B0B0B0B0B0B0C0C0C0C0C0C0D0D5A
:10B23C000D0D0D0D0E0E0E0E0E0E0F0F0F0F0F0F20
:10B24C0010101010101010111111111112121212E5
:10B25C0012121313131313141414141415151515A7
:10B26C001515161616161616171717171718181869
:10B27C00181819191919191A1A1A1A1A1B1B1B1B27
:10B28C001B1B1C1C1C1C1D1D1D1D1D1E1E1E1E1EE5
:10B29C001F1F1F1F1F20202020202121212122229F
:10B2AC002222222323232324242424242525252558
:10B2BC00252626262627272727282828282829290F
:10B2CC0029292A2A2A2A2A2B2B2B2B2C2C2C2C2DC5
:10B2DC002D2D2D2D2E2E2E2F2F2F2F303030303177
:10B2EC003131313132323232333333333434343529
:10B2FC0035353535363636363737373838383839D8
:10B30C003939393A3A3A3A3B3B3B3C3C3C3C3D3D83
:10B31C003D3D3E3E3E3E3F3F3F404040404141412F
:10B32C0041424242434343444444444445454546D8
:10B33C00464647474747484848494949494A4A4A7F
:10B34C004B4B4B4B4C4C4C4D4D4D4E4E4E4F4F4F23
:10B35C004F505050515151525252525353535454C6
:10B36C005455555556565656575758585859595965
:10B37C00595A5A5A5B5B5B5C5C5C5D5D5D5E5E5E04
:10B38C005F5F5F606060616161626262636363649E
:10B39C0065666768696A6B6C6D6E6F7071727273DB
:10B3AC007475767778797A7B7C7D7E7F7F7F7F7FE3
:10B3BC007F7F7F7F7F7F7F7F7F7F7F7F7F7F7F7F91
:10B3CC007F7F7F7F7F7F7F7F7F7F7F7F31333537AD
:10B3DC00393B3D3F21232527292B2D2F11131517E1
:10B3EC00191B1D1F01030507090B0D0F30323436D5
:10B3FC00383A3C3E20222426282A2C2E10121416D1
:10B40C00181A1C1E00020406080A0C0E09028500FC
:10B41C00020100800109040000000101000209245E
:10B42C0001000109000101090401000401030002EB
:10B43C000724010001430006240201010406240232
:10B44C000202040924030109010201040924030274
:10B45C000A01010104062402010305062402020468
:10B46C0005092403010B01040105092403020C0145
:10B47C000301050905010240000000000625010238
:10B48C0001030905810240000000000625010209A4
:10B49C000B0902850002010080FA0904000000017A
:10B4AC000100020924010001090001010904010045
:10B4BC0004010300020724010001430006240201D9
:10B4CC0001040624020202040924030109010201F9
:10B4DC0004092403020A01010104062402010305E4
:10B4EC00062402020405092403010B0104010509C9
:10B4FC002403020C010301050905010240000000B0
:10B50C00000625010201030905810240000000002C
:08B51C0006250102090B0000E5
:10BE840001000000003F3F3F003F3F3F003F0000F4
:10BE940000002000003F003F002403010101147D45
:10BEA4000300000000010203040102030406070862
:10BEB40009020406080100001D91000851910008C0
:10BEC4000191000803910008B5920008059100084B
:10BED400099100083D920008D9920008499200088F
:10BEE4000000000008000000110100201200000002
:10BEF400D6AD0008C3AD00089800002098000020CB
:10BF0400B3AD0008A9AD000818B40008850000000E
:10BF14009DB40008850000004C61756E6368706113
:10BF240064204F70656E0000000000000DA2000840
:10BF3400219200080DA200080DA200080DA200081D
:10BF44000DA200080DA200080DA2000835910008FA
:10BF5400040100000100000019A900080DA2000856
:10BF64000DA200080DA200080DA200080DA20008F1
:10BF74000DA200080DA200080DA200080DA20008E1
:10BF84000DA200080DA200080DA200080DA20008D1
:10BF940001120100020000000835125140000201A4
:04BFA4000203010093
:04000005080070B1CE
:00000001FF
